:060000000A128A110C280F
:10000800FE00030EF0000A08F1000A168A11482DB6
:100018000A128A110F288313C830FD001430FE001D
:10002800C430FF00A03084000A168A115B240A122B
:100038008A110A128A11FB270A128A11FB008316F9
:100048000313C801C901CA01CB01CC01CD01831238
:100058000313E901EA01EB01EC01ED01EE01EF0107
:10006800FA0183010A128A155C2C83120313E0003B
:100078000A168A11B0260A128A113330831603131E
:1000880046064704031D49284A280D2A0A168A11DC
:1000980033240A128A113C3083120313A0009130D2
:1000A800A100C030A2000A168A1115250A128A1169
:1000B800831203136F08D4005407A03E84008313EF
:1000C8000008A000840A00088403A100C630A2002A
:1000D8000A168A1115250A128A113630831203135B
:1000E800A0009130A1009030A2000A168A111525AF
:1000F8000A128A11963083120313A0000A30F20004
:100108000030F3006C08D400D5015408F4005508F9
:10011800F5000A168A114D260A128A117208303E15
:100128000A168A116A240A128A1197308312031355
:10013800A0000A30F2000030F3006C08D400D501AA
:100148005408F4005508F5000A168A11F6250A1213
:100158008A117208303E0A168A116A240A128A1114
:10016800983083120313A0003A300A168A116A24C1
:100178000A128A11993083120313A0000A30F20080
:100188000030F3006D08D400D5015408F400550878
:10019800F5000A168A114D260A128A117208303E95
:1001A8000A168A116A240A128A119A3083120313D2
:1001B800A0000A30F2000030F3006D08D400D50129
:1001C8005408F4005508F5000A168A11F6250A1293
:1001D8008A117208303E0A168A116A240A128A1194
:1001E800FF3083160313C6000030C7003330831274
:1001F8000313D600BB30D500DF30D400D40B02295E
:10020800D50B0229D60B02290A168A1133240A12A1
:100218008A119E3083120313A0009030A100803011
:10022800A2000A168A1115250A128A115E30831255
:100238000313A0009130A100C030A2000A168A1151
:1002480015250A128A11B43083120313A0009030C6
:10025800A1009030A2000A168A1115250A128A11E7
:10026800A93083120313A0009030A100D030A2005F
:100278000A168A1115250A128A113C30F2008312D7
:1002880003136C080A168A1144240A128A1183126D
:1002980003136D07E900EB006B08D400D501D60104
:1002A800D7015708F5005608F4005508F30054081C
:1002B800F20001300A128A1548210A128A117508BB
:1002C80083120313AD007408AC007308AB00720806
:1002D800AA003E30A900EB30A8008530A7001F30E7
:1002E800A6000A128A1115240A128A11831203130E
:1002F8002908C3002808C2002708C1002608C00032
:100308000A128A151F200A128A1183120313400841
:10031800EA006B08D400D501D601D7015708F500CB
:100328005608F4005508F3005408F20001300A1288
:100338008A1548210A128A11750883120313AD0021
:100348007408AC007308AB007208AA003D30A9001D
:10035800F530A800C230A7008F30A6000A128A1113
:1003680015240A128A11831203132908C3002808C6
:10037800C2002708C1002608C0000A128A151F20DB
:100388000A128A1183120313400883160313CD003F
:10039800831203136B08D400D501D601D70157087F
:1003A800F5005608F4005508F3005408F20001302F
:1003B8000A128A1548210A128A1175088312031332
:1003C800AD007408AC007308AB007208AA003E3098
:1003D800A900D730A8000A30A7003D30A6000A12AD
:1003E8008A1115240A128A11831203132908C300DB
:1003F8002808C2002708C1002608C0000A128A156A
:100408001F200A128A11831203134008FA001215DA
:1004180007151F3083126006031D132A142A1C2A8D
:1004280012110711443083160313C4000030C500AD
:100438003C30F20083126C080A168A1144240A120E
:100448008A11831203136D07EB0008306F0203183B
:100458002E2A2F2A8C2A6908D400D5015508D700DE
:100468006A085402D600031CD7035708803A803C18
:10047800031D402A56086B02031C432A442A522AA9
:10048800D03083120313A0009030A1008A30A2005C
:100498000A168A1115250A128A11512B8312031381
:1004A8006908D400D5015508D7006A085402D60057
:1004B800031CD7035708D9007A085602D800031C32
:1004C800D9035908803A803C031D6C2A58086B02EE
:1004D800031C6F2A702A7E2A423083120313A0005D
:1004E8009130A1008A30A2000A168A1115250A1235
:1004F8008A11512B303083120313A0009130A100D0
:100508008A30A2000A168A1115250A128A11512B5F
:1005180008306F06031D912A922A342B6B08D400E9
:10052800D501D601D7015708F5005608F40055083B
:10053800F3005408F20001300A128A1548210A1201
:100548008A11750883120313CB007408CA00730854
:10055800C9007208C8006908D800D901DA01DB01AE
:100568005B08F5005A08F4005908F3005808F2002F
:1005780001300A128A1548210A128A117508831255
:100588000313C7007408C6007308C5007208C400C6
:100598006908DC00DD01DE01DF015F08F5005E08A7
:1005A800F4005D08F3005C08F20001300A128A15B5
:1005B80048210A128A11750883120313AD007408C2
:1005C800AC007308AB007208AA003E30A900CC301A
:1005D800A800CC30A700CD30A6000A128A11152435
:1005E8000A128A11831203132908C3002808C200BB
:1005F8002708C1002608C0000A168A11A0240A127A
:100608008A11831203134308CF004208CE00410821
:10061800CD004008CC000A128A1157270A128A1105
:10062800031C172B182B262B423083120313A00010
:100638009130A1008A30A2000A168A1115250A12E3
:100648008A11512B303083120313A0009130A1007E
:100658008A30A2000A168A1115250A128A11512B0E
:1006680009306F06031D392B3A2B462B3030A0007A
:100678009130A1008A30A2000A168A1115250A12A3
:100688008A11512BD030A0009030A1008A30A200EE
:100698000A168A1115250A128A11C6308312031305
:1006A800A0000A30F2000030F3006C08D400D50135
:1006B8005408F4005508F5000A168A114D260A1246
:1006C8008A117208303E0A168A116A240A128A119F
:1006D800C73083120313A0000A30F2000030F30081
:1006E8006C08D400D5015408F4005508F5000A1622
:1006F8008A11F6250A128A117208303E0A168A11E2
:100708006A240A128A11C83083120313A0003A30EF
:100718000A168A116A240A128A11C930831203132D
:10072800A0000A30F2000030F3006D08D400D501B3
:100738005408F4005508F5000A168A114D260A12C5
:100748008A117208303E0A168A116A240A128A111E
:10075800CA3083120313A0000A30F2000030F300FD
:100768006D08D400D5015408F4005508F5000A16A0
:100778008A11F6250A128A117208303E0A168A1161
:100788006A240A128A11831203136C08031DCD2BE5
:10079800CE2B142C6D08031DD22BD32B142C0A1628
:1007A8008A1133240A128A1183120313071187143A
:1007B8001230A0009030A1008030A2000A168A11E1
:1007C80015250A128A11523083120313A0009030A3
:1007D800A100C030A2000A168A1115250A128A1132
:1007E800333083120313D600BB30D500DF30D4007A
:1007F800D40BFC2BD50BFC2BD60BFC2B8312031331
:100808008710013083160313C4000030C50011306F
:10081800C6000030C7000A168A1133240A128A114A
:100828000800831203132908B3008030B305290890
:10083800AE002E07B900A81F222C232C242C391413
:1008480039080319282C292C382C390A031D2D2C7A
:100858002E2C362C0030A9000030A8000030A7004C
:100868000030A600A817402C0030A9000030A800CE
:100878000030A7000030A6002D088039B3062D08E7
:10088800AE002E07B400AC1F4A2C4B2C4C2C341451
:1008980034080319502C512C602C340A031D552C94
:1008A800562C5E2C0030AD000030AC000030AB00A0
:1008B8000030AA00AC17682C0030AD000030AC0046
:1008C8000030AB000030AA00340803196C2C6D2CE2
:1008D800722C3908031D712C722C7B2C0030A90056
:1008E8000030A8000030A7000030A600562F2608C8
:1008F800F2002C080A168A11EC240A128A117308CD
:1009080083120313BF007208BE003E08AE00AF0199
:10091800B001B1013108B8003008B7002F08B6009F
:100928002E08B5003F08AE00AF01B001B101310893
:10093800BD003008BC002F08BB002E08BA002708ED
:10094800F2002B080A168A11EC240A128A1173087D
:1009580083120313BF007208BE003E08AE00AF0149
:10096800B001B1012E08B5072F0803110318013E85
:100978000319BF2CB607300803110318013E0319E9
:10098800C62CB707310803110318013E0319CD2CF3
:10099800B8073F08AE00AF01B001B1012E08BA0791
:1009A8002F0803110318013E0319DB2CBB0730087D
:1009B80003110318013E0319E22CBC073108031187
:1009C8000318013E0319E92CBD072808F2002A087C
:1009D8000A168A11EC240A128A1173088312031367
:1009E800BF007208BE003E08AE00AF01B001B10101
:1009F8002E08B5072F0803110318013E0319052D0A
:100A0800B607300803110318013E03190C2DB70768
:100A1800310803110318013E0319132DB8073F08C5
:100A2800AE00AF01B001B1012E08BA072F080311BB
:100A38000318013E0319212DBB07300803110318C1
:100A4800013E0319282DBC07310803110318013E84
:100A580003192F2DBD070830AE000310B50DB60DD4
:100A6800B70DB80DAE0B312D2708F2002A080A166B
:100A78008A11EC240A128A11730883120313BF0027
:100A88007208BE003E08AE003F08AF00B001B101D9
:100A98002E08B5072F0803110318013E0319552D19
:100AA800B607300803110318013E03195C2DB70778
:100AB800310803110318013E0319632DB8072608EE
:100AC800F2002B080A168A11EC240A128A117308FC
:100AD80083120313BF007208BE003E08AE003F0831
:100AE800AF00B001B1012E08B5072F080311031894
:100AF800013E0319802DB607300803110318013E83
:100B08000319872DB707310803110318013E03198C
:100B18008E2DB8070830AE000310B50DB60DB70D11
:100B2800B80DAE0B902D2608F2002A080A168A1175
:100B3800EC240A128A11730883120313BF00720887
:100B4800BE003E08AE003F08AF00B001B1012E085C
:100B5800B5072F0803110318013E0319B42DB60772
:100B6800300803110318013E0319BB2DB7073108DC
:100B780003110318013E0319C22DB8072708F20014
:100B88002C080A168A11EC240A128A117308831297
:100B98000313BF007208BE003E08AE003F08AF0056
:100BA800B001B1012E08BA072F0803110318013E3E
:100BB8000319DF2DBB07300803110318013E031981
:100BC800E62DBC07310803110318013E0319ED2D6A
:100BD800BD072808F2002B080A168A11EC240A120D
:100BE8008A11730883120313BF007208BE003E08FF
:100BF800AE003F08AF00B001B1012E08BA072F08B8
:100C080003110318013E03190A2EBB07300803110C
:100C18000318013E0319112EBC07310803110318EC
:100C2800013E0319182EBD072808F2002C080A16E1
:100C38008A11EC240A128A11730883120313BF0065
:100C48007208BE003E08AE003F08AF00B001B10117
:100C580008300310AE0DAF0DB00DB10DFF3E031DF2
:100C68002D2E2E08BA072F0803110318013E031969
:100C78003E2EBB07300803110318013E0319452E09
:100C8800BC07310803110318013E03194C2EBD0798
:100C98003508AE003608AF003708B0003808B10094
:100CA80018300310B10CB00CAF0CAE0CFF3E031D96
:100CB800552E2E08BA072F0803110318013E0319F1
:100CC800662EBB07300803110318013E03196D2E69
:100CD800BC07310803110318013E0319742EBD0720
:100CE8000830AE000310B50DB60DB70DB80DAE0B3C
:100CF800762E39083407AE00AF01AF0D2E08823EBC
:100D0800BE002F080318013EFF3EBF00A82E013089
:100D1800AE000310BA0DBB0DBC0DBD0DAE0B8D2E74
:100D2800B81F972E982E992E3A140130AE00031052
:100D3800B50DB60DB70DB80DAE0B9B2EFF30BE0727
:100D48000318BF0AFF30BF07BC1FAB2EAC2E8B2E7B
:100D5800B401B81FB02EB12ECD2EFF303505AE0030
:100D6800FF303605AF00FF303705B0007F3038055B
:100D7800B100310830042F042E040319C42EC52EE7
:100D8800C82E0130B400CD2E3A1CCB2ECC2ECD2E41
:100D9800C52E34080319D12ED22E032F0130BA07DD
:100DA800003003180130BB07003003180130BC07BE
:100DB800003003180130BD073D1CE32EE42E032F3D
:100DC8003A08AE003B08AF003C08B0003D08B1004F
:100DD8000130B200310DB10CB00CAF0CAE0CB20B3F
:100DE800EE2E3108BD003008BC002F08BB002E08CD
:100DF800BA000130BE070318BF0A0030BF073F081A
:100E0800803AFF0080307F02031D0C2FFF303E0226
:100E1800031C0F2F102F1B2F7F3083120313BD00CD
:100E28008030BC000030BB000030BA004C2F831269
:100E380003133F08803AFF0080307F02031D262FEE
:100E480001303E020318292F2A2F362F0030831233
:100E58000313BD000030BC000030BB000030BA00F6
:100E6800B3014C2F831203133E08B900FF30BA05B3
:100E7800FF30BB057F30BC050030BD05391C452F50
:100E8800462F472FBC173908AE0003102E0CBD00A3
:100E98003308BD043D08A9003C08A8003B08A7008A
:100EA8003A08A60008000030831203134805D00052
:100EB80000304905D10080304A05D2007F304B050B
:100EC800D3005308520451045004031D6C2F6D2F96
:100ED800752F0030CB000030CA000030C900003048
:100EE800C80000304C05D00000304D05D1008030DE
:100EF8004E05D2007F304F05D300530852045104E9
:100F08005004031D882F892F912F0030CF00003007
:100F1800CE000030CD000030CC00CB1F942F952F91
:100F2800B92F0030D0000030D1000030D20080301E
:100F3800D3004808D0024908031C490FA42FA52F45
:100F4800D1024A08031C4A0FAA2FAB2FD2024B0822
:100F5800031C4B0FB02FB12FD3025308CB005208FC
:100F6800CA005108C9005008C800CF1FBC2FBD2FA8
:100F7800E12F0030D0000030D1000030D2008030A6
:100F8800D3004C08D0024D08031C4D0FCC2FCD2F99
:100F9800D1024E08031C4E0FD22FD32FD2024F0876
:100FA800031C4F0FD82FD92FD3025308CF00520854
:100FB800CE005108CD005008CC008030CB068030E0
:100FC800CF064F084B02031DF32F4E084A02031D9C
:100FD800F32F4D084902031DF32F4C08480203184C
:100FE800F62FF72FF92F0310FA2F031408000134F6
:10100A000A168A111D240A128A150A168A11172429
:10101A000A128A150A168A1128240A128A158B17A7
:10102A000B17831603138710071183120313071173
:10103A0087100800031083120313420D430DC900E1
:10104A004908031D29282A2833280030C300003004
:10105A00C2000030C1000030C00094284008C4001B
:10106A004108C5004208C6004308C7001F300310E4
:10107A00C70CC60CC50CC40CFF3E031D3C28440813
:10108A00C800C217FF30C005FF30C105FF30C205D6
:10109A000030C3059630C902C91F542855286D2847
:1010AA004908803A973E03185B285C285D282A285D
:1010BA0001300310C30CC20CC10CC00CFF3E031D4F
:1010CA005E280130C907031D6B286C285D28842817
:1010DA0020304902031C722873287F282A280130ED
:1010EA00C4000310C00DC10DC20DC30DC40B762878
:1010FA000130C9024908031D832884287428480836
:10110A000319882889289428C009C109C209C30972
:10111A00C00A0319C10A0319C20A0319C30A08003B
:10112A0083120313A50022308316031346064704CD
:10113A00031DA028A128AC280A168A1133240A12F2
:10114A008A15FF3083160313C6000030C7003730F4
:10115A00831203132506031DB328B428CF280A16C1
:10116A008A1133240A128A150530F2000030F3007E
:10117A00831203136E08013EF40000300318013095
:10118A00F5000A168A11F6250A128A1572088312C0
:10119A000313EE007A30A0009030A1008030A20044
:1011AA000A168A1115250A128A15C03083120313EA
:1011BA00A0002A300A168A116A240A128A15831292
:1011CA0003136E08A3002307B83E840083130008A4
:1011DA00A000840A00088403A100C130A2000A16F4
:1011EA008A1115250A128A150530F2000030F3001B
:1011FA00831203136E08013EF40000300318013015
:10120A00F5000A168A11F6250A128A15720883123F
:10121A000313A3002307B83E840083130008A00029
:10122A00840A00088403A1009130A2000A168A11D8
:10123A0015250A128A150530F2000030F3008312D0
:10124A0003136E08023EF400003003180130F50063
:10125A000A168A11F6250A128A15720883120313CE
:10126A00A3002307B83E840083130008A000840A61
:10127A0000088403A100D130A2000A168A1115259C
:10128A000A128A15080083120313A0002008031902
:10129A004F2950296429F51F5329542964297209B1
:1012AA00A2007309A3007409A4007509A500A20A83
:1012BA000319A30A0319A40A0319A50A6C297508B4
:1012CA00A5007408A4007308A3007208A200750898
:1012DA00740473047204031D732974297D29003070
:1012EA00F5000030F4000030F3000030F200FD2970
:1012FA009630A1008B290130A10701300310A50CFB
:10130A00A40CA30CA20CFF3E031D8329FE30250565
:10131A00031D902991298029AB290130A1070130A9
:10132A00A207003003180130A30700300318013068
:10133A00A407003003180130A50701300310A50CDB
:10134A00A40CA30CA20CFF3E031DA329FF30250504
:10135A00031DB029B1299229BD290130A10201300A
:10136A00F6000310A20DA30DA40DA50DF60BB629C8
:10137A00A41BC029C129C729023021020318C62982
:10138A00C729B2292118CA29CB29D329FF30A20596
:10139A00FF30A3057F30A405FF30A5050310A10C7B
:1013AA002108F600F701F801F90118300310F60DCB
:1013BA00F70DF80DF90DFF3E031DDB297608A2048F
:1013CA007708A3047808A4047908A5042008031957
:1013DA00EF29F029F529F51FF329F429F529A5178D
:1013EA002508F5002408F4002308F3002208F20077
:1013FA00080083120313A50011308316031346064F
:10140A004704031D092A0A2A152A0A168A113324AF
:10141A000A128A15FF3083160313C6000030C7006C
:10142A003730831203132506031D1C2A1D2A382A66
:10143A000A168A1133240A128A150C30F200003077
:10144A00F300831203136F08013EF40000300318FF
:10145A000130F5000A168A11F6250A128A15720851
:10146A0083120313EF003330A0009030A1008030C4
:10147A00A2000A168A1115250A128A15C03083128B
:10148A000313A0002A300A168A116A240A128A153E
:10149A000A30831203136F020318542A552A932A17
:1014AA006F08A3002307A03E840083130008A0004E
:1014BA00840A00088403A100C130A2000A168A1116
:1014CA0015250A128A15831203136F08A30023072E
:1014DA00A23E840083130008A000840A0008840343
:1014EA00A1009130A2000A168A1115250A128A153E
:1014FA00831203136F08A3002307A43E84008313F7
:10150A000008A000840A00088403A100D130A200C8
:10151A000A168A1115250A128A15142B0A306F0623
:10152A00031D982A992AD52A6F08A3002307A03EEB
:10153A00840083130008A000840A00088403A10021
:10154A00C130A2000A168A1115250A128A158312B9
:10155A0003136F08A3002307A23E84008313000825
:10156A00A000840A00088403A1009130A2000A1690
:10157A008A1115250A128A15831603132008831265
:10158A000313A00083160313210883120313A10077
:10159A00D130A2000A168A1115250A128A15142BAF
:1015AA000B306F06031DDA2ADB2A142B6F08A300FF
:1015BA002307A03E840083130008A000840A0008C1
:1015CA008403A100C130A2000A168A1115250A1245
:1015DA008A1583160313200883120313A0008316A7
:1015EA000313210883120313A1009130A2000A16E3
:1015FA008A1115250A128A158316031322088312E3
:10160A000313A00083160313230883120313A100F4
:10161A00D130A2000A168A1115250A128A15080065
:10162A00332C2130ED00EC015B2C2930ED00182B16
:10163A002D30ED00182B6E08003A03191A2B013AC7
:10164A000319162B033A03191A2B013A03191D2BF6
:10165A00073A03191D2B5B2CEC012830ED005B2C9B
:10166A00EC013230ED005B2CEC013930ED005B2CE3
:10167A006E08003A0319352B013A0319312B033A44
:10168A000319352B013A0319392B073A0319392B58
:10169A005B2CEC011A30ED005B2CEC011F30ED00E5
:1016AA005B2C6E08003A03194E2B013A03194E2B94
:1016BA00033A03194E2B013A0319522B073A03191D
:1016CA00522B5B2C0130EC001030ED005B2C6E08C5
:1016DA00003A0319672B013A0319672B033A0319D6
:1016EA00672B013A0319672B073A0319672B5B2CFF
:1016FA000130EC002430ED005B2C6E08003A03192F
:10170A007D2B013A03197D2B033A03197D2B013AEC
:10171A0003197D2B073A03197D2B5B2CEC0124302E
:10172A00ED005B2C6E08003A0319522B013A03199B
:10173A00522B033A0319522B013A0319932B073AF6
:10174A000319932B5B2CEC011D30ED005B2C6E080A
:10175A00003A0319A82B013A0319A82B033A0319D3
:10176A00A82B013A0319A82B073A0319A82B5B2CBB
:10177A00EC012E30ED005B2CEC013530ED005B2CDA
:10178A000130EC00ED015B2C6E08003A0319C12B05
:10179A00013A0319BD2B033A0319C12B013A031964
:1017AA00C52B073A0319C52B5B2CEC011230ED004F
:1017BA005B2CEC011430ED005B2C6E08003A031927
:1017CA00DE2B013A0319DA2B033A0319DE2B013A0D
:1017DA000319DE2B073A0319DE2B5B2CEC010630CA
:1017EA00ED005B2C6E08003A0319F32B013A03193A
:1017FA00F32B033A0319F32B013A0319F32B073A94
:10180A000319F32B5B2CEC011030ED005B2CEC017F
:10181A001530ED005B2C6E08003A03190C2C013AC6
:10182A000319082C033A03190C2C013A03190C2C3E
:10183A00073A03190C2C5B2C352B6E08003A031956
:10184A00352B013A0319212C033A0319352B013A96
:10185A000319352B073A0319352B5B2C8312031313
:10186A006F08003A0319202B013A03193D2B033A5A
:10187A000319562B013A03196C2B073A0319822BC9
:10188A00013A0319972B033A0319AC2B013A0319AE
:10189A00C92B0F3A0319E22B013A0319F72B033A22
:1018AA000319102C013A0319222C5B2C08000A1286
:1018BA008A1505200A128A15433083120313A000E1
:1018CA009030A1008130A2000A168A1115250A1249
:1018DA008A15083083120313A0009130A100C53085
:1018EA00A2000A168A1115250A128A1523308312B4
:1018FA000313A0009030A1009130A2000A168A11A9
:10190A0015250A128A159D2CB83083120313E40098
:10191A000B30E5000130E4020030031CE503E50268
:10192A00640A031D9C2C650A031D9C2C9D2C8F2C7C
:10193A0000300A168A118C270A128A152F3A031DBB
:10194A00A72CA82C892C0A168A1133240A128A1564
:10195A000A168A111B270A128A151A3083120313D0
:10196A00E3005E30E2006D30E100E10BBA2CE20BDD
:10197A00BA2CE30BBA2CC12C0A168A1133240A1288
:10198A008A1500300A168A118C270A128A158312C0
:10199A000313E800B830E6000B30E7000130E60236
:1019AA000030031CE703E702660A031DE02C670AFE
:1019BA00031DE02CE12CD32C99306806031DE62C7C
:1019CA00E72CF82C8316031344034504031DEE2C5D
:1019DA00EF2CF82C0230C4000030C5002230C600BB
:1019EA000030C700972D993083126806031DFE2C1C
:1019FA00FF2C3E2D02308316031344064504031DB3
:101A0A00072D082D3E2D0330C4000030C5000A16EC
:101A1A008A1133240A128A15603083120313A00034
:101A2A009030A1008030A2000A168A1115250A12E8
:101A3A008A15B43083120313A0009030A100C0307D
:101A4A00A2000A168A1115250A128A15E030831295
:101A5A000313A0009030A1009030A2000A168A1148
:101A6A0015250A128A150A128A1515230A128A15C9
:101A7A00972D2F3083126806031D442D452D572DAF
:101A8A0044308316031344064504031D4D2D4E2D81
:101A9A00572D0430C4000030C500831203131215F9
:101AAA000715972D972D8312031368080A128A15B2
:101ABA00FE210A128A15C62C8312031368080A1219
:101ACA008A1595200A128A15C62C2F308312031301
:101ADA006806031D712D722D7D2D043083160313A4
:101AEA00C4000030C5003330C6000030C700C62C21
:101AFA001F306806031D822D832DAC2D01308316FD
:101B0A000313C4000030C5001130C6000030C700FE
:101B1A00C62C8312031368080A128A1139200A1282
:101B2A008A15C62C831603134508003A03199E2DFD
:101B3A00C62C4408013A0319582D033A0319612D9A
:101B4A00013A03196A2D073A03198E2DC62CC62CA1
:101B5A000A128A110C28750883120313A800803010
:101B6A00A8057508A0002007AA00F41FBD2DBE2DE8
:101B7A00BF2D2A142A080319C32DC42DD42D2A0ACD
:101B8A00031DC82DC92DD12D0030F5000030F400F9
:101B9A000030F3000030F200F417F501DC2D0030BC
:101BAA00F5000030F4000030F3000030F20079084C
:101BBA00A9008030A905290828060319E52DE62D74
:101BCA00E72D28177908A0002007A900F81FEE2D95
:101BDA00EF2DF02D291429080319F42DF52D052EC2
:101BEA00290A031DF92DFA2D022E0030F9000030C2
:101BFA00F8000030F7000030F600F817F9010D2E52
:101C0A000030F9000030F8000030F7000030F6002C
:101C1A002A0829020318122E132E372E281F162ED1
:101C2A00172E192E8030A8062A08AB002908AA0008
:101C3A002B08A9007208AB007608F2002B08F60000
:101C4A007308AB007708F3002B08F7007408AB00A1
:101C5A007808F4002B08F8007508AB007908F5003D
:101C6A002B08F900AB012908A000A1012108A30053
:101C7A002A082002A200031CA3032308803AFF00BB
:101C8A0080307F02031D4B2E1A302202031C4E2E77
:101C9A004F2E842E7508740473047204031D562E85
:101CAA00582E0130592E003083120313AB00003036
:101CBA00F5000030F4000030F3000030F20029088B
:101CCA00AA008C2E2B1C6A2E6B2E722E2B08A000BB
:101CDA000310200C0138AB00742E0310AB0C721CDD
:101CEA00772E782E792EAB170130A000750DF50CE2
:101CFA00F40CF30CF20CA00B7B2E0130AA07831212
:101D0A00031329082A02031C8B2E8C2E672E281BEC
:101D1A008F2E902ED72E2A08031D942E952E9E2E96
:101D2A000030F5000030F4000030F3000030F2001B
:101D3A00FF2F7608F207770803110318013E0319EB
:101D4A00A72EF307780803110318013E0319AE2ED4
:101D5A00F407790803110318013E0319B52EF50794
:101D6A00751CB82EB92E8B2F2B1CBC2EBD2EC42E43
:101D7A002B08A0000310200C0138AB00C62E03105C
:101D8A00AB0C721CC92ECA2ECB2EAB170130A00089
:101D9A00750DF50CF40CF30CF20CA00BCD2E0130E2
:101DAA00AA078B2F7508803AFF007908803A7F02CC
:101DBA00031DE92E78087402031DE92E77087302C1
:101DCA00031DE92E760872020318EC2EED2E442F1D
:101DDA00FF30A000FF30A100FF30A200FF30A300B7
:101DEA007608A4007708A5007808A6007908A70055
:101DFA007208A4027308031C730F042F052FA5028F
:101E0A007408031C740F0A2F0B2FA6027508031CF3
:101E1A00750F102F112FA7022408A00725080318F1
:101E2A00250F182F192FA10726080318260F1E2F72
:101E3A001F2FA20727080318270AA3072308F5005C
:101E4A002208F4002108F3002008F2008030A806D6
:101E5A002B03FF3AAB002B08031D342F352F522FCB
:101E6A000130F207003003180130F307003003187D
:101E7A000130F407003003180130F507522F7608B5
:101E8A00F2027708031C770FF3027808031C780F15
:101E9A00F4027908031C790FF502750874047304B7
:101EAA007204031D592F5A2F872F2B08031D5E2FEB
:101EBA005F2F872F0030F5000030F4000030F30068
:101ECA000030F200FF2F0130A0000310F20DF30DD5
:101EDA00F40DF50DA00B6A2FAB1F742F752F762FFB
:101EEA0072142B1C792F7A2F7E2F03142B0DAB0023
:101EFA00802F0310AB0D2A080319842F852F872FF3
:101F0A000130AA02F41F8A2F8B2F682FA901AB1F59
:101F1A008F2F902F9E2F2B087F390319952F962FDD
:101F2A00992F0130A9009E2F721C9C2F9D2F9E2F46
:101F3A00962F29080319A22FA32FD52F0130F207B4
:101F4A00003003180130F307003003180130F4079A
:101F5A00003003180130F507751CB42FB52FD52FA3
:101F6A007208A0007308A1007408A2007508A300F3
:101F7A000130A400230DA30CA20CA10CA00CA40BED
:101F8A00BF2F2308F5002208F4002108F3002008D7
:101F9A00F2002A0A0319D22FD32FD52F0130AA070C
:101FAA002A0A0319D92FDA2FDF2F2A08031DDE2F59
:101FBA00DF2FED2F0030F5000030F4000030F30081
:101FCA000030F2002A08031DEB2FEC2FED2FA80199
:101FDA002A1CF02FF12FF32FF417F52F7F30F40579
:101FEA002A08A0000310200CF500A81FFD2FFE2FC1
:101FFA00FF2FF517080050346C346534613473349C
:10200A006534203463346C346F347334653420346B
:10201A0064346F346F3472340034503472346F3431
:10202A006734723461346D34203463346F346D3400
:10203A0070346C3465347434653400345734613424
:10204A007334683469346E34673420344D346134FF
:10205A006334683469346E346534003477346134F7
:10206A007334683469346E346734203470347234AB
:10207A006F346734723461346D34003450347234DE
:10208A0065347334733420346B34653479342034D2
:10209A003534203474346F340034523465346D343A
:1020AA006F3476346534203463346C346F3474346A
:1020BA00683473340034703472346534733473346E
:1020CA0020347334773469347434633468340034B4
:1020DA0044344F344F345234203449345334203446
:1020EA004F34503445344E34003457344134543428
:1020FA004534523420344C344534563445344C3407
:10210A00003450346F3477346534723469346E3441
:10211A00673420344F344E340034453463346F34DA
:10212A00203463346F34743474346F346E347334DB
:10213A000034463455344E344334543449344F34DD
:10214A004E343A34203400345334573436343A3423
:10215A0020345034413455345334453400345334E4
:10216A00573435343A3420345334543441345234A5
:10217A005434003441347134753461342034733446
:10218A0074346F34723465340034533474346134C3
:10219A0069346E34203477346134733468340034EB
:1021AA0042346534643420347334683465346534B5
:1021BA007434733400345334573436343A34203454
:1021CA00533454344F345034003444346534643412
:1021DA006934633461347434653473340034573485
:1021EA0061347334683420346F346E346C34793427
:1021FA000034523469346E34733465342B344434C5
:10220A0072347934003450346F347734653472342C
:10221A0020344F344E340034443472347934203408
:10222A006F346E346C347934003457346F346F340D
:10223A006C3465346E34733400344D34453444346C
:10224A00493455344D34003457346834693474345D
:10225A006534733400347334703469346E34203422
:10226A000034543449344D3445343A34003450340B
:10227A0072346F3467343A340034723469346E34E9
:10228A007334653400344434613469346C347934D9
:10229A00003448346534613476347934003448344F
:1022AA0049344734483400344134553454344F3473
:1022BA000034543469346D34653400344C344F344A
:1022CA00573400344D34413458340034FF1B7529D7
:1022DA0083137F1883170008840A0319FF0A08006A
:1022EA007F087F398A000408840A0319FF0A8200DA
:10282E008316031306083F38860008008316031329
:10283E008801091189100A168A119F250A168A1114
:10284E000800831603138C14831203131211FA302B
:10285E008316031392000800F20101300A168A1142
:10286E007F240A168A110430F7003D30F600F60B6D
:10287E003E2CF70B3E2C432C0800F400F301741C85
:10288E00492C4A2C4C2C7208F3070310F20D03103E
:10289E00F40C7408031D542C552C462C7308080098
:1028AE007E088A007F0882000A168A1157240A16AB
:1028BE008A118000840A04087D0603190034FF0A79
:1028CE000319FE0A5B2C83120313A100F2012008E8
:1028DE000A168A117F240A168A11F201F20A83124D
:1028EE00031321080A168A117F240A168A1108007A
:1028FE00F5007208031D842C882C8312031309150E
:10290E008B2C831203130911750888008914A630C5
:10291E00F300F30B902C00008312031389101B306D
:10292E00F4009E30F300F30B9A2CF40B9A2C00005B
:10293E000800803083120313C3064708F5004608CB
:10294E00F4004508F3004408F2004308F900420879
:10295E00F8004108F7004008F6000A128A15B02563
:10296E000A168A11750883120313C3007408C20075
:10297E007308C1007208C0000800483491344E3408
:10298E009134EA34903429349134CA3490349234E8
:10299E0090341A349134D5349034FE34903411344A
:1029AE009134F4349034BF349034593491346334C8
:1029BE009134223491345434913467349134013447
:1029CE000034013400341134003483120313A40094
:1029DE00A001A1017208F400F5017408A2007508A7
:1029EE00A300241CFB2CFC2C022D2208A00703188C
:1029FE00A10A2308A10701300310A20DA30DFF3E6B
:102A0E00031D032D0310A40C2408031D0F2D102DE0
:102A1E00F82C2108F3002008F2000800F2018312BE
:102A2E00031322080A168A117F240A168A11372DDB
:102A3E00F201F20A2108FF00200884000A168A110A
:102A4E006B210A168A110A168A117F240A168A1118
:102A5E00013083120313A0070318A10A0030A10747
:102A6E00831203132108FF00200884000A168A111E
:102A7E006B210A168A11003A031D462D472D1F2D74
:102A8E000800831203138C1C4D2D4E2D982D0130F2
:102A9E0083160313C807003003180130C90700302E
:102AAE0003180130CA07003003180130CB0720305D
:102ABE0048064E30031949064A044B04031D682D7F
:102ACE00692D952D831203136D0803196F2D702D2B
:102ADE007D2D0130ED02003083160313CB00003044
:102AEE00CA000030C9000030C8008B2D6D08031DD0
:102AFE00812D822D8B2D6C080319862D872D8B2D04
:102B0E000130EC023C30ED00003083160313CB0095
:102B1E000030CA000030C9000030C8008312031311
:102B2E008C1071088A00700E8300FE0E7E0E090056
:102B3E00C330F700CD30F600F60BA32DF70BA32D07
:102B4E00F20133300A168A117F240A168A111B30BD
:102B5E00F7009E30F600F60BB22DF70BB22D0000EB
:102B6E00F20133300A168A117F240A168A11A63012
:102B7E00F600F60BC02D0000F20133300A168A1152
:102B8E007F240A168A11CB2DCC2D0000F2013C3089
:102B9E000A168A117F240A168A11A630F600F60B41
:102BAE00D62D0000F20101300A168A117F240A1672
:102BBE008A110430F7003D30F600F60BE42DF70BCA
:102BCE00E42DE92DF2010C300A168A117F240A1623
:102BDE008A11A630F600F60BF22D00000800F70160
:102BEE00F51FFA2DFB2D022EF409F509F40A03192F
:102BFE00F50A0130F700F31F052E062E0B2EF209F3
:102C0E00F309F20A0319F30A720873040319102E5A
:102C1E00112E3E2E0130F6001D2E01300310F20D46
:102C2E00F30DFF3E031D152E0130F607F31F202E68
:102C3E00212E142E73087502031D272E720874029E
:102C4E00031C2A2E2B2E312E7208F4027308031C3D
:102C5E00F503F50201300310F30CF20CFF3E031DD9
:102C6E00322E0130F602031D3D2E3E2E212E770808
:102C7E000319422E432E482EF409F509F40A0319BE
:102C8E00F50A7508F3007408F2000800F701F31F47
:102C9E00512E522E592EF209F309F20A0319F30A94
:102CAE000130F700F51F5C2E5D2E642EF409F50938
:102CBE00F40A0319F50A0130F706F801F901720852
:102CCE00730403196B2E6C2EA12E0130F600782E94
:102CDE0001300310F20DF30DFF3E031D702E013077
:102CEE00F607F31F7B2E7C2E6F2E01300310F80D8E
:102CFE00F90DFF3E031D7D2E73087502031D892EEF
:102D0E0072087402031C8C2E8D2E942E7208F402FF
:102D1E007308031CF503F502781401300310F30C4D
:102D2E00F20CFF3E031D952E0130F602031DA02E60
:102D3E00A12E7C2E77080319A52EA62EAB2EF809F0
:102D4E00F909F80A0319F90A7908F3007808F2006C
:102D5E000800831203130618B52EB62E1A2F07116C
:102D6E00121187140A168A1133240A168A116D302D
:102D7E0083120313A0009030A1008030A2000A1627
:102D8E008A1115250A168A11003083120313A0002A
:102D9E009030A100C030A2000A168A1115250A161D
:102DAE008A1183120313061CDD2EDE2ED82E071574
:102DBE00121587100A168A1133240A168A119E30AC
:102DCE0083120313A0009030A1008030A2000A16D7
:102DDE008A1115250A168A115E3083120313A0007C
:102DEE009130A100C030A2000A168A1115250A16CC
:102DFE008A11B43083120313A0009030A1009030DA
:102E0E00A2000A168A1115250A168A11A9308312F4
:102E1E000313A0009030A100D030A2000A168A1130
:102E2E0015250A168A11080083120313A601A7019D
:102E3E002608803EA000FF300A168A116A240A1660
:102E4E008A11033083120313A5008A30A400553073
:102E5E00A300A30B302FA40B302FA50B302F013066
:102E6E0083120313A6070318A70A0030A707003022
:102E7E002702103003192602031C462F472F1F2F3F
:102E8E008630A0009030A100C330A2000A168A112D
:102E9E0015250A168A11233083120313A0009030D1
:102EAE00A1009130A2000A168A1115250A168A1160
:102EBE0083120313A801A9012808D03EA000FF30F9
:102ECE000A168A116A240A168A1103308312031312
:102EDE00A5008A30A4005530A300A30B742FA40BB9
:102EEE00742FA50B742F013083120313A807031838
:102EFE00A90A0030A9070030290210300319280250
:102F0E00031C8A2F8B2F632F0800831203130608CE
:102F1E00F2003F30F2053F3072060319972F982FBB
:102F2E00A52F7B0803199C2F9D2FA52FFB0172083F
:102F3E0083160313CC00C201C301FE2F3F3072066D
:102F4E00031DAA2FAB2FC52F7B08031DAF2FB02F4C
:102F5E00C52F0130FB00831603134308803AFF0090
:102F6E0080307F02031DBD2F0F3042020318C02F89
:102F7E00C12FFE2F831603134C08FF2F7B08031D52
:102F8E00C92FCA2FE22F831603134308803AFF007E
:102F9E0080307F02031DD52F103042020318D82F28
:102FAE00D92FE22F013083160313C2070318C30A69
:102FBE000030C307FE2F7B08031DE62FE72FFE2FE1
:102FCE0010308316031342064304031DEF2FF02F18
:102FDE00FE2F37307206031DF52FF62FFE2F013010
:102FEE00C2070318C30A0030C3079930FF2F3F30C2
:022FFE000800C9
:02400E00FB3F76
:00000001FF
